:100000000C9427010C9439010C9439010C9439019A
:100010000C9439010C9439010C9439010C94390178
:100020000C9439010C9439010C9439010C94390168
:100030000C9439010C9439010C943E010C94390153
:100040000C9439010C9439010C9439010C94390148
:100050000C9439010C9439010C9439010C94390138
:100060000C9439010C943901000000000000005F7D
:1000700000000007000700147F147F14242A7F2A41
:10008000122313086462364955225000050300000C
:10009000001C2241000041221C00082A1C2A0808DA
:1000A000083E080800503000000808080808003022
:1000B00030000020100804023E5149453E00427FB6
:1000C000400042615149462141454B311814127F8D
:1000D0001027454545393C4A494930017109050316
:1000E0003649494936064949291E0036360000007E
:1000F000563600000008142241141414141441222E
:100100001408000201510906324979413E7E11115D
:10011000117E7F494949363E414141227F4141227A
:100120001C7F494949417F090901013E4141513242
:100130007F0808087F00417F41002040413F017F48
:10014000081422417F404040407F0204027F7F0428
:1001500008107F3E4141413E7F090909063E415159
:10016000215E7F09192946464949493101017F012C
:10017000013F4040403F1F2040201F7F2018207F2C
:100180006314081463030478040361514945430070
:10019000007F4141020408102041417F0000040219
:1001A0000102044040404040000102040020545439
:1001B00054787F48444438384444442038444448C0
:1001C0007F3854545418087E090102081454543CD2
:1001D0007F0804047800447D40002040443D000036
:1001E0007F10284400417F40007C041804787C087C
:1001F00004047838444444387C1414140808141453
:10020000187C7C080404084854545420043F44409B
:10021000203C4040207C1C2040201C3C4030403C86
:1002200044281028440C5050503C4464544C440022
:100230000836410000007F00000041360800080831
:100240002A1C08081C2A08080804040804001124B1
:100250001FBECFEFD8E0DEBFCDBF11E0A0E0B1E020
:1002600001C01D92A530B107E1F70E9455010C9421
:1002700065030C9400000E94EB0108951F920F92F9
:100280000FB60F9211248F939F9380910301909149
:100290000401019690930401809303019F918F9133
:1002A0000F900FBE0F901F9018950F930E94EB01B7
:1002B0000E94D20180E160E140E121E001E00E9482
:1002C000AE0285E067E044E220E00E94AE02F0CF9B
:1002D000589820980000613011F45F9A01C05F982F
:1002E000209A000098E021E030E09150289800002A
:1002F000A901092E02C0440F551F0A94E2F74823B2
:1003000011F05F9A01C05F98289A0000992369F75D
:10031000589A08951F9380910201182F117080FF41
:1003200002C086EA01C087EA60E00E94680191E0AD
:10033000111190E0809102018E7F892B8093020140
:100340001F9108951F93182F82958770806160E038
:100350000E946801812F8F7060E00E9468011F91E8
:1003600008958F70806B60E00E946801089580E4BA
:1003700060E00E946801809101010E94A2018091C9
:1003800000018695869586950E94B1010895109288
:1003900001011092000180E00E94A20180E00E9411
:1003A000B1010895CF93DF930E94C7018EEA60E008
:1003B0000E946801C0E6D3E080E061E00E9468012D
:1003C0002197D1F78FEA60E00E9468010E94C7017F
:1003D000DF91CF910895509A579A559A209A589A3A
:1003E0005D98000000005D9A83E260E00E94680171
:1003F00080E960E00E94680184EA60E00E94680190
:100400008FE260E00E94680180E460E00E94680181
:1004100080EB60E00E94680180E160E00E9468017A
:1004200080E060E00E9468018CEA60E00E94680160
:1004300087E060E00E9468018FEA60E00E94680146
:100440000E94D20108950895FF920F931F93CF93B6
:10045000DF93F62E95E0899FE0011124C853D04028
:10046000809101018D3538F01092010180910001D9
:10047000885F80930001809100018A3310F0109210
:1004800000010E94B70100E010E00530110521F0E5
:10049000FE018491219601C080E0FF2009F480953F
:1004A00061E00E946801809101018F5F80930101EA
:1004B0000F5F1F4F0630110541F7DF91CF911F915C
:1004C0000F91FF900895809301016695669566955A
:1004D00060930001089580910001885F809300017E
:1004E0001092010108951F93CF93DF93EC01162F13
:1004F00003C0612F0E94240289918823D1F7DF91E4
:10050000CF911F9108951F93CF93DF93EC01162F86
:1005100003C0612F0E942402FE012196849188234A
:10052000C1F7DF91CF911F9108951F93DF93CF9370
:10053000CDB7DEB7C151CDBF162FBE016F5F7F4F64
:100540004AE050E00E942003612F0E947302CF5EB8
:10055000CDBFCF91DF911F9108950895DF92EF9263
:10056000FF920F931F93CF93DF93082F162FF42E34
:10057000803608F05DC0613408F05AC02130C1F502
:10058000F60E8F2D813410F080E4F82EEE24C1E0B9
:10059000D0E01CC0212F2770CE0102C0880F991F08
:1005A0002A95E2F7E82A812F8770873071F4802F2F
:1005B0000E94A201812F8695869586950E94B101A1
:1005C0008E2D61E00E946801EE241F5FF11610F786
:1005D000EE2071F1802F0E94A201812F86958695D1
:1005E00086950E94B1018E2D61E00E94680120C0B5
:1005F000862F8695869586950E94B101177021E019
:1006000030E0D22E01C0DD0C1A95EAF710E00EC0E2
:10061000E02EE394802F0E94A2018D2D61E00E94C4
:1006200068019E2D903620F41F5F0E2D1F1580F35C
:10063000DF91CF911F910F91FF90EF90DF90089580
:10064000FB019F01E8944230C4F04532B4F44A30D3
:1006500029F497FB1EF4909581959F4F642F77277F
:100660000E945103805D8A330CF0895D8193CB0138
:100670000097A1F716F45DE251931082C9010C9422
:100680004103DC01FC01672F71917723E1F7329779
:1006900004C07C916D9370836291AE17BF07C8F35D
:1006A0000895AA1BBB1B51E107C0AA1FBB1FA617B9
:1006B000B70710F0A61BB70B881F991F5A95A9F70B
:0E06C00080959095BC01CD010895F894FFCF70
:00000001FF
